{
  "contractName": "SupplyChain",
  "abi": [
    {
      "inputs": [
        {
          "internalType": "string",
          "name": "_tokenURIBase",
          "type": "string"
        }
      ],
      "stateMutability": "nonpayable",
      "type": "constructor"
    },
    {
      "anonymous": false,
      "inputs": [
        {
          "indexed": true,
          "internalType": "address",
          "name": "_owner",
          "type": "address"
        },
        {
          "indexed": true,
          "internalType": "address",
          "name": "_approved",
          "type": "address"
        },
        {
          "indexed": true,
          "internalType": "uint256",
          "name": "_tokenId",
          "type": "uint256"
        }
      ],
      "name": "Approval",
      "type": "event"
    },
    {
      "anonymous": false,
      "inputs": [
        {
          "indexed": true,
          "internalType": "address",
          "name": "_owner",
          "type": "address"
        },
        {
          "indexed": true,
          "internalType": "address",
          "name": "_operator",
          "type": "address"
        },
        {
          "indexed": false,
          "internalType": "bool",
          "name": "_approved",
          "type": "bool"
        }
      ],
      "name": "ApprovalForAll",
      "type": "event"
    },
    {
      "anonymous": false,
      "inputs": [
        {
          "indexed": true,
          "internalType": "bytes32",
          "name": "role",
          "type": "bytes32"
        },
        {
          "indexed": true,
          "internalType": "address",
          "name": "account",
          "type": "address"
        },
        {
          "indexed": true,
          "internalType": "address",
          "name": "sender",
          "type": "address"
        }
      ],
      "name": "RoleGranted",
      "type": "event"
    },
    {
      "anonymous": false,
      "inputs": [
        {
          "indexed": true,
          "internalType": "bytes32",
          "name": "role",
          "type": "bytes32"
        },
        {
          "indexed": true,
          "internalType": "address",
          "name": "account",
          "type": "address"
        },
        {
          "indexed": true,
          "internalType": "address",
          "name": "sender",
          "type": "address"
        }
      ],
      "name": "RoleRevoked",
      "type": "event"
    },
    {
      "anonymous": false,
      "inputs": [
        {
          "indexed": true,
          "internalType": "address",
          "name": "_from",
          "type": "address"
        },
        {
          "indexed": true,
          "internalType": "address",
          "name": "_to",
          "type": "address"
        },
        {
          "indexed": true,
          "internalType": "uint256",
          "name": "_tokenId",
          "type": "uint256"
        }
      ],
      "name": "Transfer",
      "type": "event"
    },
    {
      "inputs": [],
      "name": "DEFAULT_ADMIN_ROLE",
      "outputs": [
        {
          "internalType": "bytes32",
          "name": "",
          "type": "bytes32"
        }
      ],
      "stateMutability": "view",
      "type": "function",
      "constant": true
    },
    {
      "inputs": [],
      "name": "DISTRIBUTOR_ROLE",
      "outputs": [
        {
          "internalType": "bytes32",
          "name": "",
          "type": "bytes32"
        }
      ],
      "stateMutability": "view",
      "type": "function",
      "constant": true
    },
    {
      "inputs": [],
      "name": "MANUFACTURER_ROLE",
      "outputs": [
        {
          "internalType": "bytes32",
          "name": "",
          "type": "bytes32"
        }
      ],
      "stateMutability": "view",
      "type": "function",
      "constant": true
    },
    {
      "inputs": [],
      "name": "TRANSPORT_ROLE",
      "outputs": [
        {
          "internalType": "bytes32",
          "name": "",
          "type": "bytes32"
        }
      ],
      "stateMutability": "view",
      "type": "function",
      "constant": true
    },
    {
      "inputs": [],
      "name": "admin",
      "outputs": [
        {
          "internalType": "address",
          "name": "",
          "type": "address"
        }
      ],
      "stateMutability": "view",
      "type": "function",
      "constant": true
    },
    {
      "inputs": [
        {
          "internalType": "address",
          "name": "_approved",
          "type": "address"
        },
        {
          "internalType": "uint256",
          "name": "_tokenId",
          "type": "uint256"
        }
      ],
      "name": "approve",
      "outputs": [],
      "stateMutability": "payable",
      "type": "function",
      "payable": true
    },
    {
      "inputs": [
        {
          "internalType": "address",
          "name": "_owner",
          "type": "address"
        }
      ],
      "name": "balanceOf",
      "outputs": [
        {
          "internalType": "uint256",
          "name": "",
          "type": "uint256"
        }
      ],
      "stateMutability": "view",
      "type": "function",
      "constant": true
    },
    {
      "inputs": [
        {
          "internalType": "uint256",
          "name": "_tokenId",
          "type": "uint256"
        }
      ],
      "name": "getApproved",
      "outputs": [
        {
          "internalType": "address",
          "name": "",
          "type": "address"
        }
      ],
      "stateMutability": "view",
      "type": "function",
      "constant": true
    },
    {
      "inputs": [
        {
          "internalType": "bytes32",
          "name": "role",
          "type": "bytes32"
        }
      ],
      "name": "getRoleAdmin",
      "outputs": [
        {
          "internalType": "bytes32",
          "name": "",
          "type": "bytes32"
        }
      ],
      "stateMutability": "view",
      "type": "function",
      "constant": true
    },
    {
      "inputs": [
        {
          "internalType": "bytes32",
          "name": "role",
          "type": "bytes32"
        },
        {
          "internalType": "uint256",
          "name": "index",
          "type": "uint256"
        }
      ],
      "name": "getRoleMember",
      "outputs": [
        {
          "internalType": "address",
          "name": "",
          "type": "address"
        }
      ],
      "stateMutability": "view",
      "type": "function",
      "constant": true
    },
    {
      "inputs": [
        {
          "internalType": "bytes32",
          "name": "role",
          "type": "bytes32"
        }
      ],
      "name": "getRoleMemberCount",
      "outputs": [
        {
          "internalType": "uint256",
          "name": "",
          "type": "uint256"
        }
      ],
      "stateMutability": "view",
      "type": "function",
      "constant": true
    },
    {
      "inputs": [
        {
          "internalType": "bytes32",
          "name": "role",
          "type": "bytes32"
        },
        {
          "internalType": "address",
          "name": "account",
          "type": "address"
        }
      ],
      "name": "grantRole",
      "outputs": [],
      "stateMutability": "nonpayable",
      "type": "function"
    },
    {
      "inputs": [
        {
          "internalType": "bytes32",
          "name": "role",
          "type": "bytes32"
        },
        {
          "internalType": "address",
          "name": "account",
          "type": "address"
        }
      ],
      "name": "hasRole",
      "outputs": [
        {
          "internalType": "bool",
          "name": "",
          "type": "bool"
        }
      ],
      "stateMutability": "view",
      "type": "function",
      "constant": true
    },
    {
      "inputs": [
        {
          "internalType": "address",
          "name": "_owner",
          "type": "address"
        },
        {
          "internalType": "address",
          "name": "_operator",
          "type": "address"
        }
      ],
      "name": "isApprovedForAll",
      "outputs": [
        {
          "internalType": "bool",
          "name": "",
          "type": "bool"
        }
      ],
      "stateMutability": "view",
      "type": "function",
      "constant": true
    },
    {
      "inputs": [
        {
          "internalType": "uint256",
          "name": "_tokenId",
          "type": "uint256"
        }
      ],
      "name": "ownerOf",
      "outputs": [
        {
          "internalType": "address",
          "name": "",
          "type": "address"
        }
      ],
      "stateMutability": "view",
      "type": "function",
      "constant": true
    },
    {
      "inputs": [
        {
          "internalType": "bytes32",
          "name": "role",
          "type": "bytes32"
        },
        {
          "internalType": "address",
          "name": "account",
          "type": "address"
        }
      ],
      "name": "renounceRole",
      "outputs": [],
      "stateMutability": "nonpayable",
      "type": "function"
    },
    {
      "inputs": [
        {
          "internalType": "bytes32",
          "name": "role",
          "type": "bytes32"
        },
        {
          "internalType": "address",
          "name": "account",
          "type": "address"
        }
      ],
      "name": "revokeRole",
      "outputs": [],
      "stateMutability": "nonpayable",
      "type": "function"
    },
    {
      "inputs": [
        {
          "internalType": "address",
          "name": "_from",
          "type": "address"
        },
        {
          "internalType": "address",
          "name": "_to",
          "type": "address"
        },
        {
          "internalType": "uint256",
          "name": "_tokenId",
          "type": "uint256"
        }
      ],
      "name": "safeTransferFrom",
      "outputs": [],
      "stateMutability": "payable",
      "type": "function",
      "payable": true
    },
    {
      "inputs": [
        {
          "internalType": "address",
          "name": "_from",
          "type": "address"
        },
        {
          "internalType": "address",
          "name": "_to",
          "type": "address"
        },
        {
          "internalType": "uint256",
          "name": "_tokenId",
          "type": "uint256"
        },
        {
          "internalType": "bytes",
          "name": "data",
          "type": "bytes"
        }
      ],
      "name": "safeTransferFrom",
      "outputs": [],
      "stateMutability": "payable",
      "type": "function",
      "payable": true
    },
    {
      "inputs": [
        {
          "internalType": "address",
          "name": "_operator",
          "type": "address"
        },
        {
          "internalType": "bool",
          "name": "_approved",
          "type": "bool"
        }
      ],
      "name": "setApprovalForAll",
      "outputs": [],
      "stateMutability": "nonpayable",
      "type": "function"
    },
    {
      "inputs": [
        {
          "internalType": "uint256",
          "name": "_tokenId",
          "type": "uint256"
        }
      ],
      "name": "tokenURI",
      "outputs": [
        {
          "internalType": "string",
          "name": "",
          "type": "string"
        }
      ],
      "stateMutability": "view",
      "type": "function",
      "constant": true
    },
    {
      "inputs": [],
      "name": "tokenURIBase",
      "outputs": [
        {
          "internalType": "string",
          "name": "",
          "type": "string"
        }
      ],
      "stateMutability": "view",
      "type": "function",
      "constant": true
    },
    {
      "inputs": [
        {
          "internalType": "address",
          "name": "_from",
          "type": "address"
        },
        {
          "internalType": "address",
          "name": "_to",
          "type": "address"
        },
        {
          "internalType": "uint256",
          "name": "_tokenId",
          "type": "uint256"
        }
      ],
      "name": "transferFrom",
      "outputs": [],
      "stateMutability": "payable",
      "type": "function",
      "payable": true
    },
    {
      "inputs": [
        {
          "internalType": "address",
          "name": "manufacturer",
          "type": "address"
        }
      ],
      "name": "addManufacturer",
      "outputs": [],
      "stateMutability": "nonpayable",
      "type": "function"
    },
    {
      "inputs": [
        {
          "internalType": "address",
          "name": "transporter",
          "type": "address"
        }
      ],
      "name": "addTransporter",
      "outputs": [],
      "stateMutability": "nonpayable",
      "type": "function"
    },
    {
      "inputs": [
        {
          "internalType": "address",
          "name": "distributor",
          "type": "address"
        }
      ],
      "name": "addDistributor",
      "outputs": [],
      "stateMutability": "nonpayable",
      "type": "function"
    },
    {
      "inputs": [
        {
          "internalType": "string",
          "name": "_manufacturer",
          "type": "string"
        },
        {
          "internalType": "bytes6",
          "name": "_serialno",
          "type": "bytes6"
        },
        {
          "internalType": "int16",
          "name": "_thermal",
          "type": "int16"
        },
        {
          "internalType": "bytes26",
          "name": "_location",
          "type": "bytes26"
        }
      ],
      "name": "makeBattery",
      "outputs": [],
      "stateMutability": "nonpayable",
      "type": "function"
    },
    {
      "inputs": [
        {
          "internalType": "uint256",
          "name": "_id",
          "type": "uint256"
        }
      ],
      "name": "orderBattery",
      "outputs": [],
      "stateMutability": "nonpayable",
      "type": "function"
    },
    {
      "inputs": [
        {
          "internalType": "uint256",
          "name": "_id",
          "type": "uint256"
        },
        {
          "internalType": "int16",
          "name": "_thermal",
          "type": "int16"
        },
        {
          "internalType": "bytes26",
          "name": "_location",
          "type": "bytes26"
        }
      ],
      "name": "thermalMonitor",
      "outputs": [],
      "stateMutability": "nonpayable",
      "type": "function"
    },
    {
      "inputs": [
        {
          "internalType": "uint256",
          "name": "_id",
          "type": "uint256"
        },
        {
          "internalType": "address",
          "name": "_to",
          "type": "address"
        },
        {
          "internalType": "int16",
          "name": "_thermal",
          "type": "int16"
        },
        {
          "internalType": "bytes26",
          "name": "_location",
          "type": "bytes26"
        }
      ],
      "name": "transferBattery",
      "outputs": [],
      "stateMutability": "nonpayable",
      "type": "function"
    },
    {
      "inputs": [
        {
          "internalType": "uint256",
          "name": "_id",
          "type": "uint256"
        }
      ],
      "name": "getBatteryTrackingInfo",
      "outputs": [
        {
          "internalType": "int16",
          "name": "",
          "type": "int16"
        },
        {
          "internalType": "bytes26",
          "name": "",
          "type": "bytes26"
        },
        {
          "internalType": "address",
          "name": "",
          "type": "address"
        }
      ],
      "stateMutability": "view",
      "type": "function",
      "constant": true
    }
  ],
  "bytecode": "0x60806040523480156200001157600080fd5b506040516200319738038062003197833981810160405260208110156200003757600080fd5b81019080805160405193929190846401000000008211156200005857600080fd5b838201915060208201858111156200006f57600080fd5b82518660018202830111640100000000821117156200008d57600080fd5b8083526020830192505050908051906020019080838360005b83811015620000c3578082015181840152602081019050620000a6565b50505050905090810190601f168015620000f15780820380516001836020036101000a031916815260200191505b50604052505050808060059080519060200190620001119291906200015b565b505033600760006101000a81548173ffffffffffffffffffffffffffffffffffffffff021916908373ffffffffffffffffffffffffffffffffffffffff160217905550506200020a565b828054600181600116156101000203166002900490600052602060002090601f016020900481019282601f106200019e57805160ff1916838001178555620001cf565b82800160010185558215620001cf579182015b82811115620001ce578251825591602001919060010190620001b1565b5b509050620001de9190620001e2565b5090565b6200020791905b8082111562000203576000816000905550600101620001e9565b5090565b90565b612f7d806200021a6000396000f3fe6080604052600436106101d85760003560e01c80638f8fdaec11610102578063b88d4fde11610095578063e985e9c511610064578063e985e9c514610c93578063f0bd87cc14610d1c578063f851a44014610d47578063fbed7fdc14610d9e576101d8565b8063b88d4fde14610a72578063c87b56dd14610b35578063ca15c87314610be9578063d547741f14610c38576101d8565b80639bc13dd3116100d15780639bc13dd31461096e578063a217fddf14610999578063a22cb465146109c4578063b702204914610a21576101d8565b80638f8fdaec146108105780639010d07c1461084b57806391d14854146108d0578063965288b014610943576101d8565b806336568abe1161017a5780636352211e116101495780636352211e1461068457806370a08231146106ff5780637250e224146107645780637a898486146107b5576101d8565b806336568abe146104c957806342842e0e146105245780634327989f146105925780635f8a5afa14610633576101d8565b806323b872dd116101b657806323b872dd14610321578063248a9ca31461038f578063261220a3146103de5780632f2ff15d1461046e576101d8565b8063081812fc146101dd578063095ea7b3146102585780631bcd8b34146102a6575b600080fd5b3480156101e957600080fd5b506102166004803603602081101561020057600080fd5b8101908080359060200190929190505050610ead565b604051808273ffffffffffffffffffffffffffffffffffffffff1673ffffffffffffffffffffffffffffffffffffffff16815260200191505060405180910390f35b6102a46004803603604081101561026e57600080fd5b81019080803573ffffffffffffffffffffffffffffffffffffffff16906020019092919080359060200190929190505050610eea565b005b3480156102b257600080fd5b5061031f600480360360808110156102c957600080fd5b8101908080359060200190929190803573ffffffffffffffffffffffffffffffffffffffff169060200190929190803560010b9060200190929190803565ffffffffffff19169060200190929190505050610ef8565b005b61038d6004803603606081101561033757600080fd5b81019080803573ffffffffffffffffffffffffffffffffffffffff169060200190929190803573ffffffffffffffffffffffffffffffffffffffff16906020019092919080359060200190929190505050611030565b005b34801561039b57600080fd5b506103c8600480360360208110156103b257600080fd5b8101908080359060200190929190505050611040565b6040518082815260200191505060405180910390f35b3480156103ea57600080fd5b506103f3611060565b6040518080602001828103825283818151815260200191508051906020019080838360005b83811015610433578082015181840152602081019050610418565b50505050905090810190601f1680156104605780820380516001836020036101000a031916815260200191505b509250505060405180910390f35b34801561047a57600080fd5b506104c76004803603604081101561049157600080fd5b8101908080359060200190929190803573ffffffffffffffffffffffffffffffffffffffff1690602001909291905050506110fe565b005b3480156104d557600080fd5b50610522600480360360408110156104ec57600080fd5b8101908080359060200190929190803573ffffffffffffffffffffffffffffffffffffffff169060200190929190505050611188565b005b6105906004803603606081101561053a57600080fd5b81019080803573ffffffffffffffffffffffffffffffffffffffff169060200190929190803573ffffffffffffffffffffffffffffffffffffffff16906020019092919080359060200190929190505050611221565b005b34801561059e57600080fd5b506105cb600480360360208110156105b557600080fd5b8101908080359060200190929190505050611241565b604051808460010b60010b81526020018365ffffffffffff191665ffffffffffff191681526020018273ffffffffffffffffffffffffffffffffffffffff1673ffffffffffffffffffffffffffffffffffffffff168152602001935050505060405180910390f35b34801561063f57600080fd5b506106826004803603602081101561065657600080fd5b81019080803573ffffffffffffffffffffffffffffffffffffffff169060200190929190505050611360565b005b34801561069057600080fd5b506106bd600480360360208110156106a757600080fd5b8101908080359060200190929190505050611465565b604051808273ffffffffffffffffffffffffffffffffffffffff1673ffffffffffffffffffffffffffffffffffffffff16815260200191505060405180910390f35b34801561070b57600080fd5b5061074e6004803603602081101561072257600080fd5b81019080803573ffffffffffffffffffffffffffffffffffffffff1690602001909291905050506114a2565b6040518082815260200191505060405180910390f35b34801561077057600080fd5b506107b36004803603602081101561078757600080fd5b81019080803573ffffffffffffffffffffffffffffffffffffffff1690602001909291905050506114ea565b005b3480156107c157600080fd5b5061080e600480360360608110156107d857600080fd5b8101908080359060200190929190803560010b9060200190929190803565ffffffffffff191690602001909291905050506115ef565b005b34801561081c57600080fd5b506108496004803603602081101561083357600080fd5b81019080803590602001909291905050506117cc565b005b34801561085757600080fd5b5061088e6004803603604081101561086e57600080fd5b8101908080359060200190929190803590602001909291905050506118d5565b604051808273ffffffffffffffffffffffffffffffffffffffff1673ffffffffffffffffffffffffffffffffffffffff16815260200191505060405180910390f35b3480156108dc57600080fd5b50610929600480360360408110156108f357600080fd5b8101908080359060200190929190803573ffffffffffffffffffffffffffffffffffffffff169060200190929190505050611907565b604051808215151515815260200191505060405180910390f35b34801561094f57600080fd5b50610958611939565b6040518082815260200191505060405180910390f35b34801561097a57600080fd5b50610983611972565b6040518082815260200191505060405180910390f35b3480156109a557600080fd5b506109ae6119ab565b6040518082815260200191505060405180910390f35b3480156109d057600080fd5b50610a1f600480360360408110156109e757600080fd5b81019080803573ffffffffffffffffffffffffffffffffffffffff1690602001909291908035151590602001909291905050506119b2565b005b348015610a2d57600080fd5b50610a7060048036036020811015610a4457600080fd5b81019080803573ffffffffffffffffffffffffffffffffffffffff169060200190929190505050611ab3565b005b610b3360048036036080811015610a8857600080fd5b81019080803573ffffffffffffffffffffffffffffffffffffffff169060200190929190803573ffffffffffffffffffffffffffffffffffffffff1690602001909291908035906020019092919080359060200190640100000000811115610aef57600080fd5b820183602082011115610b0157600080fd5b80359060200191846001830284011164010000000083111715610b2357600080fd5b9091929391929390505050611bb8565b005b348015610b4157600080fd5b50610b6e60048036036020811015610b5857600080fd5b8101908080359060200190929190505050611c0f565b6040518080602001828103825283818151815260200191508051906020019080838360005b83811015610bae578082015181840152602081019050610b93565b50505050905090810190601f168015610bdb5780820380516001836020036101000a031916815260200191505b509250505060405180910390f35b348015610bf557600080fd5b50610c2260048036036020811015610c0c57600080fd5b8101908080359060200190929190505050611c94565b6040518082815260200191505060405180910390f35b348015610c4457600080fd5b50610c9160048036036040811015610c5b57600080fd5b8101908080359060200190929190803573ffffffffffffffffffffffffffffffffffffffff169060200190929190505050611cbb565b005b348015610c9f57600080fd5b50610d0260048036036040811015610cb657600080fd5b81019080803573ffffffffffffffffffffffffffffffffffffffff169060200190929190803573ffffffffffffffffffffffffffffffffffffffff169060200190929190505050611d45565b604051808215151515815260200191505060405180910390f35b348015610d2857600080fd5b50610d31611dd9565b6040518082815260200191505060405180910390f35b348015610d5357600080fd5b50610d5c611e12565b604051808273ffffffffffffffffffffffffffffffffffffffff1673ffffffffffffffffffffffffffffffffffffffff16815260200191505060405180910390f35b348015610daa57600080fd5b50610eab60048036036080811015610dc157600080fd5b8101908080359060200190640100000000811115610dde57600080fd5b820183602082011115610df057600080fd5b80359060200191846001830284011164010000000083111715610e1257600080fd5b91908080601f016020809104026020016040519081016040528093929190818152602001838380828437600081840152601f19601f820116905080830192505050505050509192919290803579ffffffffffffffffffffffffffffffffffffffffffffffffffff19169060200190929190803560010b9060200190929190803565ffffffffffff19169060200190929190505050611e38565b005b60006002600083815260200190815260200160002060009054906101000a900473ffffffffffffffffffffffffffffffffffffffff169050919050565b610ef48282612088565b5050565b833373ffffffffffffffffffffffffffffffffffffffff16610f1982611465565b73ffffffffffffffffffffffffffffffffffffffff1614610fa2576040517f08c379a00000000000000000000000000000000000000000000000000000000081526004018080602001828103825260198152602001807f43616c6c6572206973206e6f74206120746865204f776e65720000000000000081525060200191505060405180910390fd5b826008600087815260200190815260200160002060020160066101000a81548161ffff021916908360010b61ffff160217905550816008600087815260200190815260200160002060030160006101000a81548179ffffffffffffffffffffffffffffffffffffffffffffffffffff021916908360301c0217905550611029338587612213565b5050505050565b61103b838383612213565b505050565b600060066000838152602001908152602001600020600201549050919050565b60058054600181600116156101000203166002900480601f0160208091040260200160405190810160405280929190818152602001828054600181600116156101000203166002900480156110f65780601f106110cb576101008083540402835291602001916110f6565b820191906000526020600020905b8154815290600101906020018083116110d957829003601f168201915b505050505081565b611125600660008481526020019081526020016000206002015461112061253c565b611907565b61117a576040517f08c379a000000000000000000000000000000000000000000000000000000000815260040180806020018281038252602f815260200180612e6a602f913960400191505060405180910390fd5b6111848282612544565b5050565b61119061253c565b73ffffffffffffffffffffffffffffffffffffffff168173ffffffffffffffffffffffffffffffffffffffff1614611213576040517f08c379a000000000000000000000000000000000000000000000000000000000815260040180806020018281038252602f815260200180612f19602f913960400191505060405180910390fd5b61121d82826125d8565b5050565b61123c8383836040518060200160405280600081525061266c565b505050565b6000806000833373ffffffffffffffffffffffffffffffffffffffff166008600083815260200190815260200160002060040160009054906101000a900473ffffffffffffffffffffffffffffffffffffffff1673ffffffffffffffffffffffffffffffffffffffff1614611301576040517f08c379a0000000000000000000000000000000000000000000000000000000008152600401808060200182810382526028815260200180612e996028913960400191505060405180910390fd5b6008600086815260200190815260200160002060020160069054906101000a900460010b6008600087815260200190815260200160002060030160009054906101000a900460301b61135287611465565b935093509350509193909250565b600760009054906101000a900473ffffffffffffffffffffffffffffffffffffffff1673ffffffffffffffffffffffffffffffffffffffff163373ffffffffffffffffffffffffffffffffffffffff1614611423576040517f08c379a000000000000000000000000000000000000000000000000000000000815260040180806020018281038252600a8152602001807f4f6e6c792041646d696e0000000000000000000000000000000000000000000081525060200191505060405180910390fd5b61146260405180807f4d414e5546414354555245525f524f4c4500000000000000000000000000000081525060110190506040518091039020826128a7565b50565b60006001600083815260200190815260200160002060009054906101000a900473ffffffffffffffffffffffffffffffffffffffff169050919050565b60008060008373ffffffffffffffffffffffffffffffffffffffff1673ffffffffffffffffffffffffffffffffffffffff168152602001908152602001600020549050919050565b600760009054906101000a900473ffffffffffffffffffffffffffffffffffffffff1673ffffffffffffffffffffffffffffffffffffffff163373ffffffffffffffffffffffffffffffffffffffff16146115ad576040517f08c379a000000000000000000000000000000000000000000000000000000000815260040180806020018281038252600a8152602001807f4f6e6c792041646d696e0000000000000000000000000000000000000000000081525060200191505060405180910390fd5b6115ec60405180807f4449535452494255544f525f524f4c450000000000000000000000000000000081525060100190506040518091039020826128a7565b50565b61162e60405180807f5452414e53504f52545f524f4c45000000000000000000000000000000000000815250600e019050604051809103902033611907565b6116a0576040517f08c379a000000000000000000000000000000000000000000000000000000000815260040180806020018281038252601b8152602001807f43616c6c6572206973206e6f742061205472616e73706f72746572000000000081525060200191505060405180910390fd5b823373ffffffffffffffffffffffffffffffffffffffff166116c182611465565b73ffffffffffffffffffffffffffffffffffffffff161461174a576040517f08c379a00000000000000000000000000000000000000000000000000000000081526004018080602001828103825260198152602001807f43616c6c6572206973206e6f74206120746865204f776e65720000000000000081525060200191505060405180910390fd5b826008600086815260200190815260200160002060020160066101000a81548161ffff021916908360010b61ffff160217905550816008600086815260200190815260200160002060030160006101000a81548179ffffffffffffffffffffffffffffffffffffffffffffffffffff021916908360301c021790555050505050565b61180b60405180807f4449535452494255544f525f524f4c45000000000000000000000000000000008152506010019050604051809103902033611907565b61187d576040517f08c379a000000000000000000000000000000000000000000000000000000000815260040180806020018281038252601b8152602001807f43616c6c6572206973206e6f742061204469737472696275746f72000000000081525060200191505060405180910390fd5b336008600083815260200190815260200160002060040160006101000a81548173ffffffffffffffffffffffffffffffffffffffff021916908373ffffffffffffffffffffffffffffffffffffffff16021790555050565b60006118ff82600660008681526020019081526020016000206000016128b590919063ffffffff16565b905092915050565b600061193182600660008681526020019081526020016000206000016128cf90919063ffffffff16565b905092915050565b60405180807f4d414e5546414354555245525f524f4c450000000000000000000000000000008152506011019050604051809103902081565b60405180807f5452414e53504f52545f524f4c45000000000000000000000000000000000000815250600e019050604051809103902081565b6000801b81565b80600360003373ffffffffffffffffffffffffffffffffffffffff1673ffffffffffffffffffffffffffffffffffffffff16815260200190815260200160002060008473ffffffffffffffffffffffffffffffffffffffff1673ffffffffffffffffffffffffffffffffffffffff16815260200190815260200160002060006101000a81548160ff0219169083151502179055508173ffffffffffffffffffffffffffffffffffffffff163373ffffffffffffffffffffffffffffffffffffffff167f17307eab39ab6107e8899845ad3d59bd9653f200f220920489ca2b5937696c3183604051808215151515815260200191505060405180910390a35050565b600760009054906101000a900473ffffffffffffffffffffffffffffffffffffffff1673ffffffffffffffffffffffffffffffffffffffff163373ffffffffffffffffffffffffffffffffffffffff1614611b76576040517f08c379a000000000000000000000000000000000000000000000000000000000815260040180806020018281038252600a8152602001807f4f6e6c792041646d696e0000000000000000000000000000000000000000000081525060200191505060405180910390fd5b611bb560405180807f5452414e53504f52545f524f4c45000000000000000000000000000000000000815250600e0190506040518091039020826128a7565b50565b611c0885858585858080601f016020809104026020016040519081016040528093929190818152602001838380828437600081840152601f19601f8201169050808301925050505050505061266c565b5050505050565b60606005826040516020018083805460018160011615610100020316600290048015611c725780601f10611c50576101008083540402835291820191611c72565b820191906000526020600020905b815481529060010190602001808311611c5e575b5050828152602001925050506040516020818303038152906040529050919050565b6000611cb4600660008481526020019081526020016000206000016128ff565b9050919050565b611ce26006600084815260200190815260200160002060020154611cdd61253c565b611907565b611d37576040517f08c379a0000000000000000000000000000000000000000000000000000000008152600401808060200182810382526030815260200180612ee96030913960400191505060405180910390fd5b611d4182826125d8565b5050565b6000600360008473ffffffffffffffffffffffffffffffffffffffff1673ffffffffffffffffffffffffffffffffffffffff16815260200190815260200160002060008373ffffffffffffffffffffffffffffffffffffffff1673ffffffffffffffffffffffffffffffffffffffff16815260200190815260200160002060009054906101000a900460ff16905092915050565b60405180807f4449535452494255544f525f524f4c45000000000000000000000000000000008152506010019050604051809103902081565b600760009054906101000a900473ffffffffffffffffffffffffffffffffffffffff1681565b611e7760405180807f4d414e5546414354555245525f524f4c450000000000000000000000000000008152506011019050604051809103902033611907565b611ee9576040517f08c379a000000000000000000000000000000000000000000000000000000000815260040180806020018281038252601c8152602001807f43616c6c6572206973206e6f742061204d616e7566616374757265720000000081525060200191505060405180910390fd5b611ef533600954612914565b6040518060c0016040528060095481526020018581526020018479ffffffffffffffffffffffffffffffffffffffffffffffffffff191681526020018360010b81526020018265ffffffffffff19168152602001600073ffffffffffffffffffffffffffffffffffffffff16815250600860006009548152602001908152602001600020600082015181600001556020820151816001019080519060200190611f9f929190612da2565b5060408201518160020160006101000a81548165ffffffffffff021916908360d01c021790555060608201518160020160066101000a81548161ffff021916908360010b61ffff16021790555060808201518160030160006101000a81548179ffffffffffffffffffffffffffffffffffffffffffffffffffff021916908360301c021790555060a08201518160040160006101000a81548173ffffffffffffffffffffffffffffffffffffffff021916908373ffffffffffffffffffffffffffffffffffffffff16021790555090505060096000815480929190600101919050555050505050565b60006001600083815260200190815260200160002060009054906101000a900473ffffffffffffffffffffffffffffffffffffffff1690508073ffffffffffffffffffffffffffffffffffffffff163373ffffffffffffffffffffffffffffffffffffffff1614612161576040517f08c379a000000000000000000000000000000000000000000000000000000000815260040180806020018281038252600e8152602001807f4e6f7420617574686f72697a656400000000000000000000000000000000000081525060200191505060405180910390fd5b826002600084815260200190815260200160002060006101000a81548173ffffffffffffffffffffffffffffffffffffffff021916908373ffffffffffffffffffffffffffffffffffffffff160217905550818373ffffffffffffffffffffffffffffffffffffffff168273ffffffffffffffffffffffffffffffffffffffff167f8c5be1e5ebec7d5bd14f71427d1e84f3dd0314c0f7b2291e5b200ac8c7c3b92560405160405180910390a4505050565b8060006001600083815260200190815260200160002060009054906101000a900473ffffffffffffffffffffffffffffffffffffffff1690503373ffffffffffffffffffffffffffffffffffffffff168173ffffffffffffffffffffffffffffffffffffffff1614806122e457503373ffffffffffffffffffffffffffffffffffffffff166002600084815260200190815260200160002060009054906101000a900473ffffffffffffffffffffffffffffffffffffffff1673ffffffffffffffffffffffffffffffffffffffff16145b8061237c575060011515600360008373ffffffffffffffffffffffffffffffffffffffff1673ffffffffffffffffffffffffffffffffffffffff16815260200190815260200160002060003373ffffffffffffffffffffffffffffffffffffffff1673ffffffffffffffffffffffffffffffffffffffff16815260200190815260200160002060009054906101000a900460ff161515145b6123ee576040517f08c379a00000000000000000000000000000000000000000000000000000000081526004018080602001828103825260178152602001807f5472616e73666572206e6f7420617574686f72697a656400000000000000000081525060200191505060405180910390fd5b60016000808773ffffffffffffffffffffffffffffffffffffffff1673ffffffffffffffffffffffffffffffffffffffff1681526020019081526020016000206000828254039250508190555060016000808673ffffffffffffffffffffffffffffffffffffffff1673ffffffffffffffffffffffffffffffffffffffff16815260200190815260200160002060008282540192505081905550836001600085815260200190815260200160002060006101000a81548173ffffffffffffffffffffffffffffffffffffffff021916908373ffffffffffffffffffffffffffffffffffffffff160217905550828473ffffffffffffffffffffffffffffffffffffffff168673ffffffffffffffffffffffffffffffffffffffff167fddf252ad1be2c89b69c2b068fc378daa952ba7f163c4a11628f55a4df523b3ef60405160405180910390a45050505050565b600033905090565b61256c8160066000858152602001908152602001600020600001612ae890919063ffffffff16565b156125d45761257961253c565b73ffffffffffffffffffffffffffffffffffffffff168173ffffffffffffffffffffffffffffffffffffffff16837f2f8788117e7eff1d82e926ec794901d17c78024a50270940304540a733656f0d60405160405180910390a45b5050565b6126008160066000858152602001908152602001600020600001612b1890919063ffffffff16565b156126685761260d61253c565b73ffffffffffffffffffffffffffffffffffffffff168173ffffffffffffffffffffffffffffffffffffffff16837ff6391f5c32d9c69d2a47ea670b442974b53935d1edc7fd64eb21e047a839171b60405160405180910390a45b5050565b612677848484612213565b6126968373ffffffffffffffffffffffffffffffffffffffff16612b48565b156128a15760008373ffffffffffffffffffffffffffffffffffffffff1663150b7a02338786866040518563ffffffff1660e01b8152600401808573ffffffffffffffffffffffffffffffffffffffff1673ffffffffffffffffffffffffffffffffffffffff1681526020018473ffffffffffffffffffffffffffffffffffffffff1673ffffffffffffffffffffffffffffffffffffffff16815260200183815260200180602001828103825283818151815260200191508051906020019080838360005b8381101561277657808201518184015260208101905061275b565b50505050905090810190601f1680156127a35780820380516001836020036101000a031916815260200191505b5095505050505050602060405180830381600087803b1580156127c557600080fd5b505af11580156127d9573d6000803e3d6000fd5b505050506040513d60208110156127ef57600080fd5b8101908080519060200190929190505050905063150b7a0260e01b7bffffffffffffffffffffffffffffffffffffffffffffffffffffffff1916817bffffffffffffffffffffffffffffffffffffffffffffffffffffffff19161461289f576040517f08c379a0000000000000000000000000000000000000000000000000000000008152600401808060200182810382526028815260200180612ec16028913960400191505060405180910390fd5b505b50505050565b6128b18282612544565b5050565b60006128c48360000183612b93565b60001c905092915050565b60006128f7836000018373ffffffffffffffffffffffffffffffffffffffff1660001b612c16565b905092915050565b600061290d82600001612c39565b9050919050565b600073ffffffffffffffffffffffffffffffffffffffff166001600083815260200190815260200160002060009054906101000a900473ffffffffffffffffffffffffffffffffffffffff1673ffffffffffffffffffffffffffffffffffffffff16146129e9576040517f08c379a000000000000000000000000000000000000000000000000000000000815260040180806020018281038252601a8152602001807f5468697320746f6b656e20616c72656164792065786973742e2e00000000000081525060200191505060405180910390fd5b816001600083815260200190815260200160002060006101000a81548173ffffffffffffffffffffffffffffffffffffffff021916908373ffffffffffffffffffffffffffffffffffffffff16021790555060016000808473ffffffffffffffffffffffffffffffffffffffff1673ffffffffffffffffffffffffffffffffffffffff16815260200190815260200160002060008282540192505081905550808273ffffffffffffffffffffffffffffffffffffffff16600073ffffffffffffffffffffffffffffffffffffffff167fddf252ad1be2c89b69c2b068fc378daa952ba7f163c4a11628f55a4df523b3ef60405160405180910390a45050565b6000612b10836000018373ffffffffffffffffffffffffffffffffffffffff1660001b612c4a565b905092915050565b6000612b40836000018373ffffffffffffffffffffffffffffffffffffffff1660001b612cba565b905092915050565b60008060007fc5d2460186f7233c927e7db2dcc703c0e500b653ca82273b7bfad8045d85a47060001b9050833f9150808214158015612b8a57506000801b8214155b92505050919050565b600081836000018054905011612bf4576040517f08c379a0000000000000000000000000000000000000000000000000000000008152600401808060200182810382526022815260200180612e486022913960400191505060405180910390fd5b826000018281548110612c0357fe5b9060005260206000200154905092915050565b600080836001016000848152602001908152602001600020541415905092915050565b600081600001805490509050919050565b6000612c568383612c16565b612caf578260000182908060018154018082558091505060019003906000526020600020016000909190919091505582600001805490508360010160008481526020019081526020016000208190555060019050612cb4565b600090505b92915050565b60008083600101600084815260200190815260200160002054905060008114612d965760006001820390506000600186600001805490500390506000866000018281548110612d0557fe5b9060005260206000200154905080876000018481548110612d2257fe5b9060005260206000200181905550600183018760010160008381526020019081526020016000208190555086600001805480612d5a57fe5b60019003818190600052602060002001600090559055866001016000878152602001908152602001600020600090556001945050505050612d9c565b60009150505b92915050565b828054600181600116156101000203166002900490600052602060002090601f016020900481019282601f10612de357805160ff1916838001178555612e11565b82800160010185558215612e11579182015b82811115612e10578251825591602001919060010190612df5565b5b509050612e1e9190612e22565b5090565b612e4491905b80821115612e40576000816000905550600101612e28565b5090565b9056fe456e756d657261626c655365743a20696e646578206f7574206f6620626f756e6473416363657373436f6e74726f6c3a2073656e646572206d75737420626520616e2061646d696e20746f206772616e7443616c6c6572206973206e6f74207468652052657175657374696e67204469737472696275746f72726563697069656e742053432063616e6e6f742068616e646c652045524337323120746f6b656e73416363657373436f6e74726f6c3a2073656e646572206d75737420626520616e2061646d696e20746f207265766f6b65416363657373436f6e74726f6c3a2063616e206f6e6c792072656e6f756e636520726f6c657320666f722073656c66a2646970667358221220dcd62d397e9ff7ca6fd1f450ea9b940ab11cac3ec8e45d86c9d05e1de4f93ab464736f6c63430006020033",
  "source": "// SPDX-License-Identifier: MIT\r\n\r\npragma solidity >=0.4.21 <0.7.0;\r\n//pragma experimental ABIEncoderV2;\r\n\r\nimport \"@openzeppelin/contracts/access/AccessControl.sol\";\r\nimport \"./ERC721Token.sol\";\r\n\r\ncontract SupplyChain is ERC721Token, AccessControl {\r\n    using Address for address;\r\n\r\n    bytes32 public constant MANUFACTURER_ROLE = keccak256(\"MANUFACTURER_ROLE\");\r\n    bytes32 public constant TRANSPORT_ROLE = keccak256(\"TRANSPORT_ROLE\");\r\n    bytes32 public constant DISTRIBUTOR_ROLE = keccak256(\"DISTRIBUTOR_ROLE\");\r\n\r\n    address public admin;\r\n\r\n    struct Battery {\r\n        uint256 id;\r\n        string manufacturer;\r\n        bytes6 serialno;\r\n        int16 thermal;\r\n        bytes26 location;\r\n        address requestingDistributor;\r\n    }\r\n\r\n    mapping(uint256 => Battery) private batteries;\r\n    uint256 private nextId;\r\n\r\n    constructor(string memory _tokenURIBase) public ERC721Token(_tokenURIBase) {\r\n        admin = msg.sender;\r\n    }\r\n\r\n    modifier onlyAdmin() {\r\n        require(msg.sender == admin, \"Only Admin\");\r\n        _;\r\n    }\r\n\r\n    modifier onlyManufacturer() {\r\n        require(\r\n            super.hasRole(MANUFACTURER_ROLE, msg.sender),\r\n            \"Caller is not a Manufacturer\"\r\n        );\r\n        _;\r\n    }\r\n\r\n    modifier onlyTransporter() {\r\n        require(\r\n            super.hasRole(TRANSPORT_ROLE, msg.sender),\r\n            \"Caller is not a Transporter\"\r\n        );\r\n        _;\r\n    }\r\n\r\n    modifier onlyDistributor() {\r\n        require(\r\n            super.hasRole(DISTRIBUTOR_ROLE, msg.sender),\r\n            \"Caller is not a Distributor\"\r\n        );\r\n        _;\r\n    }\r\n\r\n    modifier onlyRequestingDistributor(uint256 _id) {\r\n        require(\r\n            batteries[_id].requestingDistributor == msg.sender,\r\n            \"Caller is not the Requesting Distributor\"\r\n        );\r\n        _;\r\n    }\r\n\r\n    modifier onlyOwner(uint256 _id) {\r\n        require(super.ownerOf(_id) == msg.sender, \"Caller is not a the Owner\");\r\n        _;\r\n    }\r\n\r\n    function addManufacturer(address manufacturer) public onlyAdmin() {\r\n        super._setupRole(MANUFACTURER_ROLE, manufacturer);\r\n    }\r\n\r\n    function addTransporter(address transporter) public onlyAdmin() {\r\n        super._setupRole(TRANSPORT_ROLE, transporter);\r\n    }\r\n\r\n    function addDistributor(address distributor) public onlyAdmin() {\r\n        super._setupRole(DISTRIBUTOR_ROLE, distributor);\r\n    }\r\n\r\n    function makeBattery(\r\n        string memory _manufacturer,\r\n        bytes6 _serialno,\r\n        int16 _thermal,\r\n        bytes26 _location\r\n    ) public onlyManufacturer() {\r\n        super._mint(msg.sender, nextId);\r\n        batteries[nextId] = Battery(\r\n            nextId,\r\n            _manufacturer,\r\n            _serialno,\r\n            _thermal,\r\n            _location,\r\n            address(0)\r\n        );\r\n        nextId++;\r\n    }\r\n\r\n    function orderBattery(uint256 _id) public onlyDistributor() {\r\n        batteries[_id].requestingDistributor = msg.sender;\r\n    }\r\n\r\n    function thermalMonitor(\r\n        uint256 _id,\r\n        int16 _thermal,\r\n        bytes26 _location\r\n    ) public onlyTransporter() onlyOwner(_id) {\r\n        batteries[_id].thermal = _thermal;\r\n        batteries[_id].location = _location;\r\n    }\r\n\r\n    function transferBattery(\r\n        uint256 _id,\r\n        address _to,\r\n        int16 _thermal,\r\n        bytes26 _location\r\n    ) public onlyOwner(_id) {\r\n        batteries[_id].thermal = _thermal;\r\n        batteries[_id].location = _location;\r\n        super._transfer(msg.sender, _to, _id);\r\n    }\r\n\r\n    function getBatteryTrackingInfo(uint256 _id)\r\n        public\r\n        view\r\n        onlyRequestingDistributor(_id)\r\n        returns (\r\n            int16,\r\n            bytes26,\r\n            address\r\n        )\r\n    {\r\n        return (\r\n            batteries[_id].thermal,\r\n            batteries[_id].location,\r\n            super.ownerOf(_id)\r\n        );\r\n    }\r\n}\r\n",
  "sourcePath": "C:\\Perishables-supply-chain\\smart_contract\\contracts\\SupplyChain.sol",
  "compiler": {
    "name": "solc",
    "version": "0.6.2+commit.bacdbe57.Emscripten.clang"
  },
  "schemaVersion": "3.2.0",
  "updatedAt": "2020-06-19T05:09:50.578Z",
  "networkType": "ethereum",
  "devdoc": {
    "methods": {
      "getRoleAdmin(bytes32)": {
        "details": "Returns the admin role that controls `role`. See {grantRole} and {revokeRole}.     * To change a role's admin, use {_setRoleAdmin}."
      },
      "getRoleMember(bytes32,uint256)": {
        "details": "Returns one of the accounts that have `role`. `index` must be a value between 0 and {getRoleMemberCount}, non-inclusive.     * Role bearers are not sorted in any particular way, and their ordering may change at any point.     * WARNING: When using {getRoleMember} and {getRoleMemberCount}, make sure you perform all queries on the same block. See the following https://forum.openzeppelin.com/t/iterating-over-elements-on-enumerableset-in-openzeppelin-contracts/2296[forum post] for more information."
      },
      "getRoleMemberCount(bytes32)": {
        "details": "Returns the number of accounts that have `role`. Can be used together with {getRoleMember} to enumerate all bearers of a role."
      },
      "grantRole(bytes32,address)": {
        "details": "Grants `role` to `account`.     * If `account` had not been already granted `role`, emits a {RoleGranted} event.     * Requirements:     * - the caller must have ``role``'s admin role."
      },
      "hasRole(bytes32,address)": {
        "details": "Returns `true` if `account` has been granted `role`."
      },
      "renounceRole(bytes32,address)": {
        "details": "Revokes `role` from the calling account.     * Roles are often managed via {grantRole} and {revokeRole}: this function's purpose is to provide a mechanism for accounts to lose their privileges if they are compromised (such as when a trusted device is misplaced).     * If the calling account had been granted `role`, emits a {RoleRevoked} event.     * Requirements:     * - the caller must be `account`."
      },
      "revokeRole(bytes32,address)": {
        "details": "Revokes `role` from `account`.     * If `account` had been granted `role`, emits a {RoleRevoked} event.     * Requirements:     * - the caller must have ``role``'s admin role."
      }
    }
  },
  "userdoc": {
    "methods": {}
  }
}